{
  "contractName": "Escrow",
  "abi": [
    {
      "anonymous": false,
      "inputs": [
        {
          "indexed": true,
          "internalType": "address",
          "name": "previousOwner",
          "type": "address"
        },
        {
          "indexed": true,
          "internalType": "address",
          "name": "newOwner",
          "type": "address"
        }
      ],
      "name": "OwnershipTransferred",
      "type": "event"
    },
    {
      "constant": true,
      "inputs": [],
      "name": "isOwner",
      "outputs": [
        {
          "internalType": "bool",
          "name": "",
          "type": "bool"
        }
      ],
      "payable": false,
      "stateMutability": "view",
      "type": "function"
    },
    {
      "constant": true,
      "inputs": [],
      "name": "owner",
      "outputs": [
        {
          "internalType": "address",
          "name": "",
          "type": "address"
        }
      ],
      "payable": false,
      "stateMutability": "view",
      "type": "function"
    },
    {
      "constant": false,
      "inputs": [],
      "name": "renounceOwnership",
      "outputs": [],
      "payable": false,
      "stateMutability": "nonpayable",
      "type": "function"
    },
    {
      "constant": false,
      "inputs": [
        {
          "internalType": "address",
          "name": "newOwner",
          "type": "address"
        }
      ],
      "name": "transferOwnership",
      "outputs": [],
      "payable": false,
      "stateMutability": "nonpayable",
      "type": "function"
    },
    {
      "constant": false,
      "inputs": [
        {
          "internalType": "address",
          "name": "_buyerAddress",
          "type": "address"
        },
        {
          "internalType": "address",
          "name": "_sellerAddress",
          "type": "address"
        },
        {
          "internalType": "uint256",
          "name": "_feeMode",
          "type": "uint256"
        },
        {
          "internalType": "uint256",
          "name": "_price",
          "type": "uint256"
        },
        {
          "internalType": "uint256",
          "name": "_orderId",
          "type": "uint256"
        }
      ],
      "name": "createOrder",
      "outputs": [],
      "payable": true,
      "stateMutability": "payable",
      "type": "function"
    },
    {
      "constant": true,
      "inputs": [],
      "name": "hasPerseusToken",
      "outputs": [
        {
          "internalType": "uint256",
          "name": "",
          "type": "uint256"
        }
      ],
      "payable": false,
      "stateMutability": "view",
      "type": "function"
    },
    {
      "constant": false,
      "inputs": [
        {
          "internalType": "uint256",
          "name": "_orderId",
          "type": "uint256"
        }
      ],
      "name": "release",
      "outputs": [],
      "payable": false,
      "stateMutability": "nonpayable",
      "type": "function"
    },
    {
      "constant": false,
      "inputs": [
        {
          "internalType": "uint256",
          "name": "_orderId",
          "type": "uint256"
        }
      ],
      "name": "refund",
      "outputs": [],
      "payable": false,
      "stateMutability": "nonpayable",
      "type": "function"
    },
    {
      "constant": false,
      "inputs": [],
      "name": "withdraw",
      "outputs": [],
      "payable": false,
      "stateMutability": "nonpayable",
      "type": "function"
    }
  ],
  "bytecode": "0x60806040527365dc57a9e458211774c82cffeb70f83939742a59600160006101000a81548173ffffffffffffffffffffffffffffffffffffffff021916908373ffffffffffffffffffffffffffffffffffffffff160217905550600160009054906101000a900473ffffffffffffffffffffffffffffffffffffffff16600260006101000a81548173ffffffffffffffffffffffffffffffffffffffff021916908373ffffffffffffffffffffffffffffffffffffffff160217905550336000806101000a81548173ffffffffffffffffffffffffffffffffffffffff021916908373ffffffffffffffffffffffffffffffffffffffff1602179055506000809054906101000a900473ffffffffffffffffffffffffffffffffffffffff1673ffffffffffffffffffffffffffffffffffffffff16600073ffffffffffffffffffffffffffffffffffffffff167f8be0079c531659141344cd1fd0a4f28419497f9722a3daafe3b4186f6b6457e060405160405180910390a3610f7d806101876000396000f3fe6080604052600436106100865760003560e01c8063518e62db11610059578063518e62db14610143578063715018a6146101c55780638da5cb5b146101dc5780638f32d59b14610233578063f2fde38b1461026257610086565b8063278ecde11461008b57806337bdc99b146100c65780633ccfd60b146101015780634837811314610118575b600080fd5b34801561009757600080fd5b506100c4600480360360208110156100ae57600080fd5b81019080803590602001909291905050506102b3565b005b3480156100d257600080fd5b506100ff600480360360208110156100e957600080fd5b81019080803590602001909291905050506105a5565b005b34801561010d57600080fd5b50610116610950565b005b34801561012457600080fd5b5061012d6109b7565b6040518082815260200191505060405180910390f35b6101c3600480360360a081101561015957600080fd5b81019080803573ffffffffffffffffffffffffffffffffffffffff169060200190929190803573ffffffffffffffffffffffffffffffffffffffff169060200190929190803590602001909291908035906020019092919080359060200190929190505050610aab565b005b3480156101d157600080fd5b506101da610ce3565b005b3480156101e857600080fd5b506101f1610db3565b604051808273ffffffffffffffffffffffffffffffffffffffff1673ffffffffffffffffffffffffffffffffffffffff16815260200191505060405180910390f35b34801561023f57600080fd5b50610248610ddc565b604051808215151515815260200191505060405180910390f35b34801561026e57600080fd5b506102b16004803603602081101561028557600080fd5b81019080803573ffffffffffffffffffffffffffffffffffffffff169060200190929190505050610e33565b005b80600080905060008090505b6003805490508110156103af5782600382815481106102da57fe5b906000526020600020906004020160030160009054906101000a900473ffffffffffffffffffffffffffffffffffffffff1673ffffffffffffffffffffffffffffffffffffffff1614801561039857503373ffffffffffffffffffffffffffffffffffffffff166003828154811061034e57fe5b906000526020600020906004020160010160009054906101000a900473ffffffffffffffffffffffffffffffffffffffff1673ffffffffffffffffffffffffffffffffffffffff16145b156103a257600191505b80806001019150506102bf565b506103b8610db3565b73ffffffffffffffffffffffffffffffffffffffff163373ffffffffffffffffffffffffffffffffffffffff1614156103f057600190505b600181146103fd57600080fd5b600080905060008090505b60038054905081101561052857846003828154811061042357fe5b906000526020600020906004020160030160009054906101000a900473ffffffffffffffffffffffffffffffffffffffff1673ffffffffffffffffffffffffffffffffffffffff16141561051b5760006003828154811061048057fe5b906000526020600020906004020160000160009054906101000a900473ffffffffffffffffffffffffffffffffffffffff1690508073ffffffffffffffffffffffffffffffffffffffff166108fc600384815481106104db57fe5b9060005260206000209060040201600201549081150290604051600060405180830381858888f19350505050158015610518573d6000803e3d6000fd5b50505b8080600101915050610408565b506001811461059f576040517f08c379a000000000000000000000000000000000000000000000000000000000815260040180806020018281038252601c8152602001807f5468657265206973206e6f206d61746368696e67206f7264657249640000000081525060200191505060405180910390fd5b50505050565b80600080905060008090505b6003805490508110156106a15782600382815481106105cc57fe5b906000526020600020906004020160030160009054906101000a900473ffffffffffffffffffffffffffffffffffffffff1673ffffffffffffffffffffffffffffffffffffffff1614801561068a57503373ffffffffffffffffffffffffffffffffffffffff166003828154811061064057fe5b906000526020600020906004020160000160009054906101000a900473ffffffffffffffffffffffffffffffffffffffff1673ffffffffffffffffffffffffffffffffffffffff16145b1561069457600191505b80806001019150506105b1565b506106aa610db3565b73ffffffffffffffffffffffffffffffffffffffff163373ffffffffffffffffffffffffffffffffffffffff1614156106e257600190505b600181146106ef57600080fd5b600080905060008090505b6003805490508110156108d357846003828154811061071557fe5b906000526020600020906004020160030160009054906101000a900473ffffffffffffffffffffffffffffffffffffffff1673ffffffffffffffffffffffffffffffffffffffff1614156108c65760006103e86003838154811061077557fe5b9060005260206000209060040201600201548161078e57fe5b046003838154811061079c57fe5b9060005260206000209060040201600201540390506001600383815481106107c057fe5b906000526020600020906004020160010160149054906101000a900460ff1660ff161415610835576107d0600383815481106107f857fe5b9060005260206000209060040201600201548161081157fe5b046003838154811061081f57fe5b9060005260206000209060040201600201540390505b60006003838154811061084457fe5b906000526020600020906004020160010160009054906101000a900473ffffffffffffffffffffffffffffffffffffffff1690508073ffffffffffffffffffffffffffffffffffffffff166108fc839081150290604051600060405180830381858888f193505050501580156108be573d6000803e3d6000fd5b506001935050505b80806001019150506106fa565b506001811461094a576040517f08c379a000000000000000000000000000000000000000000000000000000000815260040180806020018281038252601c8152602001807f5468657265206973206e6f206d61746368696e67206f7264657249640000000081525060200191505060405180910390fd5b50505050565b610958610ddc565b61096157600080fd5b600061096b610db3565b90508073ffffffffffffffffffffffffffffffffffffffff166108fc479081150290604051600060405180830381858888f193505050501580156109b3573d6000803e3d6000fd5b5050565b600080600260009054906101000a900473ffffffffffffffffffffffffffffffffffffffff1673ffffffffffffffffffffffffffffffffffffffff166370a08231336040518263ffffffff1660e01b8152600401808273ffffffffffffffffffffffffffffffffffffffff1673ffffffffffffffffffffffffffffffffffffffff16815260200191505060206040518083038186803b158015610a5957600080fd5b505afa158015610a6d573d6000803e3d6000fd5b505050506040513d6020811015610a8357600080fd5b81019080805190602001909291905050501415610aa35760009050610aa8565b600190505b90565b60008290506001841415610aca576107d08381610ac457fe5b04810190505b803414610b3f576040517f08c379a00000000000000000000000000000000000000000000000000000000081526004018080602001828103825260198152602001807f6661696c656420746f20726563656976652074686520626e620000000000000081525060200191505060405180910390fd5b60036040518060a001604052808873ffffffffffffffffffffffffffffffffffffffff1681526020018773ffffffffffffffffffffffffffffffffffffffff1681526020018660ff1681526020018581526020018473ffffffffffffffffffffffffffffffffffffffff168152509080600181540180825580915050906001820390600052602060002090600402016000909192909190915060008201518160000160006101000a81548173ffffffffffffffffffffffffffffffffffffffff021916908373ffffffffffffffffffffffffffffffffffffffff16021790555060208201518160010160006101000a81548173ffffffffffffffffffffffffffffffffffffffff021916908373ffffffffffffffffffffffffffffffffffffffff16021790555060408201518160010160146101000a81548160ff021916908360ff1602179055506060820151816002015560808201518160030160006101000a81548173ffffffffffffffffffffffffffffffffffffffff021916908373ffffffffffffffffffffffffffffffffffffffff160217905550505050505050505050565b610ceb610ddc565b610cf457600080fd5b600073ffffffffffffffffffffffffffffffffffffffff166000809054906101000a900473ffffffffffffffffffffffffffffffffffffffff1673ffffffffffffffffffffffffffffffffffffffff167f8be0079c531659141344cd1fd0a4f28419497f9722a3daafe3b4186f6b6457e060405160405180910390a360008060006101000a81548173ffffffffffffffffffffffffffffffffffffffff021916908373ffffffffffffffffffffffffffffffffffffffff160217905550565b60008060009054906101000a900473ffffffffffffffffffffffffffffffffffffffff16905090565b60008060009054906101000a900473ffffffffffffffffffffffffffffffffffffffff1673ffffffffffffffffffffffffffffffffffffffff163373ffffffffffffffffffffffffffffffffffffffff1614905090565b610e3b610ddc565b610e4457600080fd5b610e4d81610e50565b50565b600073ffffffffffffffffffffffffffffffffffffffff168173ffffffffffffffffffffffffffffffffffffffff161415610e8a57600080fd5b8073ffffffffffffffffffffffffffffffffffffffff166000809054906101000a900473ffffffffffffffffffffffffffffffffffffffff1673ffffffffffffffffffffffffffffffffffffffff167f8be0079c531659141344cd1fd0a4f28419497f9722a3daafe3b4186f6b6457e060405160405180910390a3806000806101000a81548173ffffffffffffffffffffffffffffffffffffffff021916908373ffffffffffffffffffffffffffffffffffffffff1602179055505056fea265627a7a7231582043884e9ce6db4c6d072b1673c53b2a383a0b9cf38e00566666522228c62296ec64736f6c63430005100032",
  "source": "pragma solidity >=0.4.22 <0.9.0;\r\n\r\n/**\r\n * @title Escrow contract\r\n * @dev main interface of Escrow smart contract\r\n */\r\n\r\nimport \"./ownable.sol\";\r\n\r\ninterface Perseus {\r\n    function balanceOf(address account) external view returns (uint256);\r\n}\r\n\r\n contract Escrow is Ownable {\r\n     address tokenAddress = 0x65dc57A9e458211774c82cfFeB70f83939742A59;\r\n     Perseus perseusContract = Perseus(tokenAddress);\r\n\r\n     /// @notice struct of escrow order\r\n     struct Order {\r\n        address buyer;\r\n        address seller;\r\n        uint8 feeMode;\r\n        uint256 price;\r\n        uint160 orderId;\r\n     }\r\n\r\n     /// @notice array of escrow orders\r\n     Order[] orders;\r\n\r\n    /**\r\n      * @dev check if msg.sender is the buyer registered in the orders.\r\n      * @param _orderId id that saved in the escrow database\r\n      */\r\n     modifier isBuyer(uint _orderId) {\r\n        uint isbuyer = 0;\r\n        for (uint i = 0; i < orders.length; i++) {\r\n            if (orders[i].orderId == _orderId && orders[i].buyer == msg.sender) {\r\n                isbuyer = 1;\r\n            }\r\n        }\r\n        if (msg.sender == owner()) {\r\n            isbuyer = 1;\r\n        }\r\n        require(isbuyer == 1);\r\n        _;\r\n     }\r\n\r\n    /**\r\n      * @dev check if msg.sender is the seller registered in the orders.\r\n      * @param _orderId id that saved in the escrow database\r\n      */\r\n     modifier isSeller(uint _orderId) {\r\n        uint isseller = 0;\r\n        for (uint i = 0; i < orders.length; i++) {\r\n            if (orders[i].orderId == _orderId && orders[i].seller == msg.sender) {\r\n                isseller = 1;\r\n            }\r\n        }\r\n        if (msg.sender == owner()) {\r\n            isseller = 1;\r\n        }\r\n        require(isseller == 1);\r\n        _;\r\n     }\r\n\r\n     /**\r\n      * @dev register new Order to smart contract with infomations of buyer, seller, feeMode, and price.\r\n      * @param _buyerAddress address of buyer\r\n      * @param _sellerAddress address of seller\r\n      * @param _feeMode the variable who pay the escrow fee, 0 -> seller, 1 -> both\r\n      * @param _price the fund amount of transaction\r\n      * @param _orderId id that saved in the escrow database\r\n      */\r\n     function createOrder(address _buyerAddress, address _sellerAddress, uint _feeMode, uint _price, uint _orderId) external payable {\r\n         uint price = _price;\r\n        //  if (_feeMode == 1 && perseusContract.balanceOf(msg.sender) == 0) {\r\n        //     price = price + _price / 2000;\r\n        //  }\r\n         if (_feeMode == 1) {\r\n            price = price + _price / 2000;\r\n         }\r\n         require(msg.value == price, \"failed to receive the bnb\");\r\n         orders.push(Order(_buyerAddress, _sellerAddress, uint8(_feeMode), _price, uint160(_orderId)));\r\n     }  \r\n\r\n    /**\r\n      * @dev check if msg.sender has perseus token.\r\n      */\r\n     function hasPerseusToken() external view returns(uint) {\r\n         if (perseusContract.balanceOf(msg.sender) == 0) {\r\n            return 0;\r\n         } else {\r\n             return 1;\r\n         }\r\n     }\r\n\r\n    /**\r\n      * @dev withdraw the bnb from smart contract by the buyer.\r\n      */\r\n     function release(uint _orderId) external isBuyer(_orderId) {\r\n        uint result = 0;\r\n        for (uint i = 0; i < orders.length; i++) {\r\n            if (orders[i].orderId == _orderId) {\r\n                uint price = orders[i].price - orders[i].price / 1000;\r\n                // if (perseusContract.balanceOf(orders[i].seller) != 0) {\r\n                //     price = orders[i].price;\r\n                // } else if (orders[i].feeMode == 1) {\r\n                //     price = orders[i].price - orders[i].price / 2000;\r\n                // }\r\n                if (orders[i].feeMode == 1) {\r\n                    price = orders[i].price - orders[i].price / 2000;\r\n                }\r\n                address payable _payAdr = address(uint160(orders[i].seller));\r\n                _payAdr.transfer(price);\r\n                result = 1;\r\n            }\r\n        }\r\n        require(result == 1, \"There is no matching orderId\");\r\n     }\r\n\r\n    /**\r\n      * @dev withdraw the bnb from smart contract by the seller.\r\n      */\r\n     function refund(uint _orderId) external isSeller(_orderId) {\r\n        uint result = 0;\r\n        for (uint i = 0; i < orders.length; i++) {\r\n            if (orders[i].orderId == _orderId) {\r\n                address payable _payAdr = address(uint160(orders[i].buyer));\r\n                _payAdr.transfer(orders[i].price);\r\n            }\r\n        }\r\n        require(result == 1, \"There is no matching orderId\");\r\n     }\r\n\r\n    /**\r\n      * @dev withdraw the bnb from smart contract by the seller.\r\n      */\r\n     function withdraw() external onlyOwner {\r\n        address payable _owner = address(uint160(owner()));\r\n        _owner.transfer(address(this).balance);\r\n     }\r\n\r\n }",
  "sourcePath": "F:\\multisig-wallet\\contracts\\contracts\\Escrow.sol",
  "compiler": {
    "name": "solc",
    "version": "0.5.16+commit.9c3226ce.Emscripten.clang"
  },
  "schemaVersion": "3.4.3",
  "updatedAt": "2021-09-27T16:28:37.950Z",
  "networkType": "ethereum",
  "devdoc": {
    "methods": {
      "createOrder(address,address,uint256,uint256,uint256)": {
        "details": "register new Order to smart contract with infomations of buyer, seller, feeMode, and price.",
        "params": {
          "_buyerAddress": "address of buyer",
          "_feeMode": "the variable who pay the escrow fee, 0 -> seller, 1 -> both",
          "_orderId": "id that saved in the escrow database",
          "_price": "the fund amount of transaction",
          "_sellerAddress": "address of seller"
        }
      },
      "hasPerseusToken()": {
        "details": "check if msg.sender has perseus token."
      },
      "isOwner()": {
        "return": "true if `msg.sender` is the owner of the contract."
      },
      "owner()": {
        "return": "the address of the owner."
      },
      "refund(uint256)": {
        "details": "withdraw the bnb from smart contract by the seller."
      },
      "release(uint256)": {
        "details": "withdraw the bnb from smart contract by the buyer."
      },
      "renounceOwnership()": {
        "details": "Allows the current owner to relinquish control of the contract."
      },
      "transferOwnership(address)": {
        "details": "Allows the current owner to transfer control of the contract to a newOwner.",
        "params": {
          "newOwner": "The address to transfer ownership to."
        }
      },
      "withdraw()": {
        "details": "withdraw the bnb from smart contract by the seller."
      }
    }
  },
  "userdoc": {
    "methods": {
      "renounceOwnership()": {
        "notice": "Renouncing to ownership will leave the contract without an owner. It will not be possible to call the functions with the `onlyOwner` modifier anymore."
      }
    }
  }
}